:10000000E01A0020D51501008D8B0000918B0000B7
:10001000A70A02020002000004180FAC5065B001EC
:1000200000000000000000000000000000000000D0
:10003000000000000C12030000000000000000009F
:100040000000000000000000FFFFFFFFFFFFFFFFB8
:10005000FFFFFFFFFFFFFFFFFFFFFFFFFFFFFFFFB0
:1000600000E00F000000000000001000FFFFFFFF95
:10007000FFFFFFFF1C000000000000000000000068
:10008000E8500020E4440020E4440020E444002040
:10009000E01A0020244403002CBE0200801100203E
:0C00A0005C11002000001000E85000205F
:10020000E01A0020D51501008D8B0000918B0000B5
:10021000998B0000958B00009D8B0000D315010089
:10022000D3150100D3150100D3150100D31501002A
:10023000A18B0000D3150100D3150100D3150100D7
:1002400031A50000ED8F01008D8E0000148C0000A0
:10025000B18A010059900100F98F0100119001004D
:10026000F18F0100659C0000399D000055BB000026
:10027000050A0100148C0000148C0000D9760000DF
:10028000148C0000148C00005D9D0000148C000094
:10029000148C0000148C0000148C0000148C0000DE
:1002A000148C0000148C0000148C0000148C0000CE
:1002B0005D900100F58F0100B5A200009D90010046
:1002C000148C0000F5490100148C0000148C00000F
:1002D000148C0000148C0000148C0000148C00009E
:1002E000148C0000148C0000148C0000148C00008E
:1002F000148C0000148C0000148C0000148C00007E
:0C030000148C0000148C0000D3150100C8
:10030C00F8B500BFF8BC08BC9E467047F8B500BFF6
:10031C00F8BC08BC9E46704710B5054C237833B921
:10032C00044B13B10448AFF300800123237010BDBC
:10033C002021002000000000DC3D030008B5034B29
:10034C001BB103490348AFF3008008BD0000000057
:10035C0024210020DC3D0300154B002B08BF134B60
:10036C009D46A3F5803A00218B460F461348144A4C
:10037C00121A2BF042FD0F4B002B00D098470E4B5E
:10038C00002B00D098470020002104000D000D48E0
:10039C00002802D00C48AFF300802BF0FFFC2000AB
:1003AC00290010F0C9FD2BF0E5FC00BF000008008F
:1003BC00E01A0020000000000000000020210020B6
:1003CC00E4440020000000000000000021B9034BB1
:1003DC00187003481DF062B8704700BF3C21002024
:1003EC00E8300020912808B504D1002008F03CFC2E
:1003FC00002008BD9028FBD1002008F023FCF7E773
:10040C0010B5074B002201201A700EF035F8054A82
:10041C000549C3B2BDE81040012004F0B3B800BFD9
:10042C00E030002047D8020086C002007FB51A4B8E
:10043C0000241C7000F0A0FE0228064629D102F010
:10044C002DFC164B1B7801250E2B057110D1144B6E
:10045C0032460621284602F0B1FB02F0E9FB114AB4
:10046C0011490346012004B0BDE8704004F08AB87D
:10047C000F2BF2D104F0D2FB1423C0B201930090E5
:10048C00CDE90244094B22460821284602F096FB8E
:10049C00E3E704B070BD00BFE83000203C21002031
:1004AC00D7DD020075C002009419030070C0020071
:1004BC00064B10B500241C7000F05EFE022804D11F
:1004CC002046BDE8104008F0BDBB10BDF030002048
:1004DC0008B5012003F01AFC044B00221A7001200D
:1004EC000EF0F2FBBDE8084003F0FFBB0831002022
:1004FC0008B5002003F0F2FB044B00221A700DF03B
:10050C00D1FABDE8084003F0F0BB00BFF830002082
:10051C0008B5002003F0E2FB044B00221A700DF02A
:10052C00E3FDBDE8084003F0E0BB00BF0031002054
:10053C0008B501201DF0CAF802481DF03DF8024B29
:10054C00187008BDA8C002001031002008B503F0D7
:10055C0005FA012805D0034B1878BDE808401DF0BA
:10056C000FB808BD1031002010B50C1E03D11CF0C3
:10057C0095FF002010BD02DB1CF09CFFF9E7022068
:10058C00F8E7B1F5000F02D20902FFF7EDBF022028
:10059C00704700002DE9F0419846154B154F1B880C
:1005AC0000264FF00C0CF4B29C4202D30220BDE8A2
:1005BC00F0810CFB04F57C197D5D854205D16588C5
:1005CC008D4202D12579954201D00136EBE701F03D
:1005DC007FFA0028EAD04146A068FFF7C5FF002843
:1005EC00E4D19DF8183063719DF81C30A371DEE7DF
:1005FC00F41A0020E81A002013B59DF81040CDE93C
:10060C00003413460022FFF7C5FF02B010BD07B53A
:10061C0000230093FFF7F0FF03B05DF804FB00002C
:10062C000E4BF0B51F880E4E00254FF00C0CEBB2A4
:10063C00BB4201D30220F0BD0CFB03F3F418F35CB6
:10064C00834205D163888B4202D12379934201D036
:10065C000135ECE7A36800201870ECE7F41A0020D1
:10066C00E81A00200022FFF7DBBF00002DE9F04F55
:10067C001E4693B0FF23022E8046894614461C9DCD
:10068C009DF874A08DF81E3040F2BA802B785A0772
:10069C002BD5042E40F2B48095F804B05D4A0023AB
:1006AC0002EBC301DFB20979FF2907D001330A2B12
:1006BC00F6D1209B002B40F0A780FF27002308AA2F
:1006CC000DF11F0120798DF81F3002F029F978B156
:1006DC00BDF82C3023809DF81F0003F0FFFA8DF835
:1006EC001D00C8B113B0BDE8F08F95F802B0D5E786
:1006FC00207901F0FFF9FF28059000F08380207924
:10070C0003F004FB8DF81D000028EBD1059B42483B
:10071C0000EB031043882380618823884FF6FF7217
:10072C00B8F1000F08BF4A46CDE9001258465246B0
:10073C00002105F029FA18B1E38843F02003E38087
:10074C00209B0F950DF11D010DA8CDE90D34ADF8D1
:10075C004090ADF842608DF844808DF845A002F0D1
:10076C0019F910B19DF81D00BCE7284605F02AF9CF
:10077C00A01D05F015F922464946404605F026FB1A
:10078C0080B2B0422CD39DF87C300393BDF8783006
:10079C0002930DF11E03CDE900532246F3B24946F4
:1007AC00404600F076FE8DF81D00209A9DF81D3015
:1007BC00D2B15BBB9DF81E20FF2A08D0092F06D8AA
:1007CC00144B03EBC7010A71209A43F837209DF8AC
:1007DC001D3013B911200DF0D9FA03F086FAC1E7D8
:1007EC0074238DF81D30E0E7BA2BF0D1E388DB06DB
:1007FC00EDD5002301208DF81D3003F0B5F8E6E7A8
:10080C0001206FE7A3206DE7B4206BE7BA2BEDD086
:10081C00E3E700BF40210020D43100200023054A2B
:10082C0010B51946FF24D018047199500833502B79
:10083C00F9D110BD4021002010B586B00881089C6C
:10084C0004940024CDE902440124CDE9003413467C
:10085C000A4601460320FFF709FF06B010BD13B589
:10086C0000240094FFF7E8FF02B010BD2DE9FF4112
:10087C000F469046054688B381B37AB30026694685
:10088C00F0B22AF0FBFA044630B99DF80030032B85
:10089C0006D001360A2EF2D1204604B0BDE8F08114
:1008AC009DF801202B799A42F3D1BDF802206B8878
:1008BC009A42EED19DF806309DF8050000EB03201E
:1008CC0080B29DF804306B71288143463A46294624
:1008DC00FFF7C5FF0028DCD00446DDE70224DBE788
:1008EC0010B586B0089C04940024CDE90244012480
:1008FC00CDE9003413460A4601460620FFF7B6FE42
:10090C0006B010BD13B500240094FFF7E9FF02B048
:10091C0010BDF0B502288BB005460E4614461F4696
:10092C000AD106A9F0B22AF0A9FA98B99DF81930A3
:10093C0023719DF81C306371119B04930022109B52
:10094C000192CDE90222009322463B4631462846CD
:10095C00FFF78CFE0BB0F0BD13B500240194049C82
:10096C000094FFF7D6FF02B010BD2DE9F043064608
:10097C008BB00F4690469946002506A9E8B22AF09E
:10098C007DFA044630B99DF81830012B06D001359C
:10099C000A2DF2D120460BB0BDE8F0839DF819204A
:1009AC0033799A42F3D1BDF81A2073889A42EED16A
:1009BC009DF81C307371CDE90309CDE90100CDF828
:1009CC0000803B463246A9B20220FFF74FFE0028BA
:1009DC00DDD00446DEE7F0B587B0074614460E4678
:1009EC001622002168461D4603F0E0F8ADF80C70A5
:1009FC00ADF80A40F6B1082231460DF1010003F0C2
:100A0C0079F8BDF8143043F00203ADF8143000232C
:100A1C008DF80030BDF83430ADF80E300F9ABDF8BB
:100A2C003030BDF83810ADF8103068460EF07EFC52
:100A3C0007B0F0BD1DB1ADF812500C23E8E74FF62E
:100A4C00FB739C428CBF082400248DF80040E1E726
:100A5C0007B5094A0346108831B9084A084903B05A
:100A6C005DF804EB03F0AABD0091064A064903F0B9
:100A7C00A5FD03B05DF804FB322200201EF5020038
:100A8C009DC5020039F80200A4C502007FB50546D9
:100A9C000E461DF0E1FD2A46044603460C4904208F
:100AAC0003F070FD8CB986B101238DF80E30032351
:100ABC000093224603AB36214FF6FC708DF80C40A8
:100ACC008DF80D5006F0B4FD0446204604B070BD00
:100ADC0086C50200FF2810B50C4604D10420044939
:100AEC0003F050FDFE202146BDE81040FFF7CEBFBD
:100AFC0046C70200F8B51F460B8806460D4614463D
:100B0C00002B63D14A88110448BF63783049082010
:100B1C0003F038FD6B8848F20402934232D00FD8B0
:100B2C0048F2010293423ED048F20202934242D074
:100B3C00132B0ED1A2786378264903EB022223E013
:100B4C0048F20602934223D032D348F22002934259
:100B5C0026D03B4622462946304600F0F2FD40B9ED
:100B6C006A8848F221039A4203D16178304601F039
:100B7C00E4FE6B88B3F5004F02D908200DF026F97E
:100B8C00012024E0144A1549082003F0FBFCE0E79F
:100B9C00134A1249082003F011FD22791149F3E799
:100BAC0062781149F0E71149082003F0EBFCD0E71B
:100BBC0022790F49E8E70F4A0849082003F0FEFCA8
:100BCC00A27863780C4903EB0222DDE70020F8BD24
:100BDC00B1C5020027C60200D6C50200DDC5020061
:100BEC00EEC50200F4C5020002C602003EC60200B9
:100BFC0058C602007AC602007FC602002DE9F047F3
:100C0C0088B00C4692469946BDF84050119E8046DD
:100C1C0022F00AFC628823881D49009207462A4666
:100C2C00022003F0AFFC8DF80880CDE90346ADF847
:100C3C001450ADF816708DF818A08DF8199000F0BE
:100C4C009DFA8DF81A0000F09BFA8DF81B0010F03D
:100C5C0006FC8DF81C0002A801F09AFEA8B92B46E0
:100C6C0032462146384604F009FB70B92B46324611
:100C7C0021463846FFF73EFF38B9CDE900702B46C8
:100C8C0032464146204604F0A5FF08B0BDE8F08787
:100C9C00BFC402002DE9F04F85B08046894614464A
:100CAC00BDF838600F9D9DF840B01F46002B2CD02E
:100CBC00434A4449042003F081FC2388002B70D064
:100CCC0040F2091293426ED03F4A4049B3F5827FFD
:100CDC0018BF0A466188009101963D49042003F033
:100CEC006DFC23886BB1022E0BD92B7839493A4A0B
:100CFC0013F0010F18BF0A46AB783849042003F0F3
:100D0C005DFC3749042003F03DFC364A00231146B4
:100D1C0002EBC3000079584547D152F833A00023A9
:100D2C0001EBC3021079584545D1FF201071002208
:100D3C0041F8332047B9238833B9B4F90230002B7A
:100D4C0002DB08200DF022F801200DF03FF89DB1D8
:100D5C002878C30710D510F0040004D032460121C6
:100D6C00284602F09AFFCDE90170009533462246E1
:100D7C004946404601F03DF9BAF1000F06D0CDE9E5
:100D8C0000573346224649464046D0473346224612
:100D9C0049464046CDE90E5705B0BDE8F04F01F08D
:100DAC00C8BD114A96E7114A94E701330A2BAFD11B
:100DBC004FF0000AB3E701330A2BB1D1BAE700BFF9
:100DCC000BC5020013C50200F9C4020060C5020085
:100DDC001DC50200FCC4020004C502004CC5020083
:100DEC00D7DD020040210020F2C40200F6C402004C
:100DFC00962813B5044638D031D8912840D0942881
:100E0C0033D0902845D100F0B3F9264B0090264AF8
:100E1C002649042003F0B6FBBC2C2CD12449042019
:100E2C0003F0B0FB01F0C0FD01F0BFFD01F0BDFD12
:100E3C0020460CF0C5FE20460FF040F9204610F07D
:100E4C008DF8204606F03AFD2046FFF7CBFA30B37A
:100E5C001849042002B0BDE8104003F093BBAF2842
:100E6C0007D8AB280AD2982813D1134B0E4A134932
:100E7C0009E0BC28C6E724F0B7FCD7E79128F4D1E9
:100E8C00084B094A0E49042003F07CFB04F0C9FC12
:100E9C00CEE722460B49022003F074FBC8E702B0F0
:100EAC0010BD00BF90C6020099C60200A0C6020089
:100EBC00ADC60200F5C60200BDF60200D4C60200A3
:100ECC00CBC60200DDC6020013B50F4C002002F0A9
:100EDC0005FF23686BB101A800F038FB48B9236803
:100EEC001A789DF804309A4203D0012A07D1022BBC
:100EFC0005D1032301A8ADF804301EF065FA02F009
:100F0C00F4FE02B010BD00BF2C22002010B5044628
:100F1C0002F0E9FE204601F051FDBDE8104002F060
:100F2C00E4BE00000D4B1B6837B505469BB11C7821
:100F3C000289C37A0A490092012C0A4A4FF0010037
:100F4C0008BF022403F01EFB2946204603B0BDE86F
:100F5C0030401EF0D5B9702003B030BD2C220020DB
:100F6C002AC7020025C7020010B5044600F0F8F8A5
:100F7C00631E04F10F02002113F8010FFF2808BFB4
:100F8C0019709342F8D10023237410BD7FB504ABC4
:100F9C0003E9030000239DF80D509DF80E601649DF
:100FAC001C46D8B201EBC0025268EAB99DF80C108D
:100FBC0000919DF80B309DF80A201049042003F095
:100FCC00FDFA25B12A460E49042003F0F7FA0D4A22
:100FDC00BDF808300C49002C18BF2246042004B080
:100FEC00BDE8704003F0CEBA11F830000133B042C6
:100FFC0008BF1446D5E700BF84C7020063C50200D2
:10100C0074C502005FC5020078C50200FFF7DEB9A7
:10101C0010B50BF090FA012300224FF4E13120209F
:10102C000FF066FA07F0A4FB044608F099F8224684
:10103C0003461249012003F0A5FA07F09FFB044672
:10104C0008F09CF8224603460D49012003F09AFA59
:10105C0007F08EFB012303FA00F040F2A173184253
:10106C000BD0084C207807F08FFB207807F048FC59
:10107C002078BDE8104007F049BD10BDFCC8020047
:10108C0012C902005D1B002037B50022114601A8D1
:10109C0001F04CFC00284DD11BF0FCFF034600284E
:1010AC0043D02649264A012003F06CFAAA21254890
:1010BC0007F044F902F008FEFFF7B0FB00F066FB06
:1010CC0000F026FB0221084603F0C0FDFFF7FCFEF2
:1010DC0001F0ACFE1C4B1D4C1D4D41F202021A805E
:1010EC001C4A522313801C4A4FF40040138018F002
:1010FC0079FA07F0FFFE1CF077F802F02FFC0128BC
:10110C0001D000F00EFB0FF049FAFFF71FFA202177
:10111C00002002F0BDF828B1224629464FF6FF7098
:10112C0003F04CFA02F0E3FDE3E70C49022003F074
:10113C0029FABFE7019803B030BD00BF20C80200F8
:10114C000BC5020031C80200AC200020E7C8020029
:10115C00F8C80200AE200020B0200020DDC802003C
:10116C00024910237F22098807F00ABEF608030003
:10117C001CF02AB91CF034B91BF0CCBE22F054BCC4
:10118C001FB5684622F05EF9C8B902A924F07AF8B6
:10119C00082269460DEB020002F00FFD10B9002089
:1011AC0004B010BD02A9012024F06CF80822694695
:1011BC000DEB020002F001FD90B90120F0E722F0E6
:1011CC0033F94FF6FF739842044609D0002024F0FF
:1011DC0071F88442E3D0012024F06CF88442ECD006
:1011EC00FF20DDE738B5054602F090FD044698B9BE
:1011FC004FF4A8532A460949082003F0C3F94FF4C9
:10120C00A851284606F086F90549024604460820EE
:10121C0003F0B8F902F069FD204638BD32C902006E
:10122C003EC902007FB5054602F05DFD1CF0CCF80E
:10123C0040B16B88B3F5006F04D1681D01F07BFBE6
:10124C00044616E0284601F0B4FBD8B90446E6B2D1
:10125C006946304629F012FE80B99DF800306BB912
:10126C002946304629F08CFE0028E9D075280BD091
:10127C008C2402F03AFD204604B070BD01340A2CD7
:10128C00E5D1F5E78D24F4E78B24F2E738B5054674
:10129C0002F029FD284601F08AFB98B9284629F06E
:1012AC003DFE68B175280CBF8B24882423462A4642
:1012BC000549082003F066F902F017FD204638BDF9
:1012CC000446F3E78D24F7E748C9020037B502A9B5
:1012DC00FF2301F8013D044601F01EFB18B19DF8F7
:1012EC00070003B030BD094B03EB04131D7B10F05A
:1012FC00B8F8854201D0FF20F3E7204600F066FAEB
:10130C000028F8D0204600F09FFCEAE7D4310020FA
:10131C002DE9F04107460D4601F000FB0646F0B9F9
:10132C00384600F0E7FBFF2819D00E4C04EB0014F4
:10133C0094F80C8010F095F8804510D163882B80C0
:10134C00A3886B80A3792B710121384600F082FCB5
:10135C0031466871384600F07DFC0126A871304694
:10136C00BDE8F081D4310020F8B504460E46154690
:10137C0000F0C0FBFF2802D14FF6FF70F8BD0B4BFD
:10138C0003EB0010077B10F06CF88742F4D146B9E0
:10139C0001222946204600F083FC0028ECD000886E
:1013AC00ECE7012EE8D10022F3E700BFD431002096
:1013BC0010B5044602F097FC2046FFF719FDBDE876
:1013CC00104002F092BC000037B50C4B1B681C5C43
:1013DC0094420D460AD900922346094A0949042031
:1013EC0003F0D0F80024204603B030BD00220146A3
:1013FC000092234628461CF09BFBF4E7C01B002000
:10140C000BC5020008C80200F0B599B0144603AD34
:10141C000F46064602F067FC204652222946FFF78B
:10142C00D3FF84B28CB10DF10A0021F0EDFF0DF168
:10143C000B0021F0F1FF9DF90B309DF80A20CDE94E
:10144C00004539463046FFF7D9FB02F04EFC19B087
:10145C00F0BD2DE9F0419AB01D4605AC0F46904603
:10146C00064602F040FC522221462846FFF7ACFF0C
:10147C0050B180B20090CDE901459DF880304246D4
:10148C0039463046FFF706FC02F02FFC1AB0BDE8D7
:10149C00F0812DE9F74307460E460A98BDF83080D7
:1014AC009DF83490194615461CF06AFBFF2804463B
:1014BC003AD00B9B1870062F34D8DFE807F00404E1
:1014CC0004121929220003462A463146384622F0D6
:1014DC0011FA054620461CF0F7F9284603B0BDE882
:1014EC00F0830C2203461146284622F0D5F9F0E78A
:1014FC00EA7A0346CDE900891146284622F08EF996
:10150C00E7E703460C222946304622F02DF9E0E7A6
:10151C000190EB7A00934A462B463146404622F026
:10152C0047F9D6E70225D5E71825D6E70822014961
:10153C0002F0E0BAE943002010B5044608461BF05F
:10154C00FDFC2046BDE810401DF004BA1DF002BAA7
:10155C0005207047002070470A207047014B18780F
:10156C00704700BFD81B00204B207047024B1868F7
:10157C005968FFF70BBD00BF7A3C030013B5044656
:10158C0002F0B1FB0DF1060021F03EFF0DF107005A
:10159C0021F042FF9DF907209DF8061020460DF022
:1015AC0051F830B99DF907209DF8061020460EF031
:1015BC005FFF02F09AFB02B010BD38B504460D4631
:1015CC0002F091FB294620460DF086F918B9294600
:1015DC0020460EF05DFFBDE8384002F086BB38B502
:1015EC0004460D4602F07FFB294620460DF094F888
:1015FC0018B9294620460EF029FFBDE8384002F004
:10160C0074BB38B504460D4602F06DFB29462046E6
:10161C000DF0AAF818B92946204601F0D6F9BDE814
:10162C00384002F062BB704700F08FB87047000082
:10163C002DE9F341224B01931646044640B13AB1D1
:10164C00002301AA9D5C8D4233D00133042BF9D1C8
:10165C00022002B0BDE8F081E35C93FAA3F30146EB
:10166C00180E02F06DF9434603F10108DBB2BB42E0
:10167C00F2DBC2B292FAA2F2C0F30F2393FAA3F3F5
:10168C00100E1B0E03EB00236219DB439BB212F806
:10169C00020CD9B2884211D112F8012CB2EB132FE3
:1016AC000CD132462146284602B0BDE8F04128F064
:1016BC00A5BC00234FF6FF708F1ED5E7BD20C8E7F1
:1016CC00080A0E122DE9F041984686B00F4B1546CC
:1016DC00064603A80F461C7826F0C0FE15F0FD0F39
:1016EC0012D030B9BDF80C309B0702D5032D08BFC2
:1016FC000324304600942B464246394601F063F9E8
:10170C00204606B0BDE8F0810324F2E790210020CA
:10171C0008B504F051F801F008F9BDE808400CF0E8
:10172C001BBB08B501F004F90CF0A8FC0DF0CCF9CA
:10173C000DF06CFBBDE8084004F072B8704701F086
:10174C0025B901F029B90020704738B504460D467B
:10175C000FF060FD29462046BDE8384001F038B94D
:10176C0001F01CB901F027B910B5074A0123312B40
:10177C00194601D1002006E00233D41814F8034CAA
:10178C008442F4D1505C10BD5EC90200094B0122A9
:10179C001A70094B1A704FF482725A8040F202325E
:1017AC009A8000229A71054A9A604FF480729A814D
:1017BC00704700BF91210020D4310020F4CA0200F0
:1017CC00014B1878704700BF91210020034B03EBAD
:1017DC000010407B00F00100704700BFD4310020A6
:1017EC00413803288CBF0020012070474138012864
:1017FC008CBF002001207047433801288CBF00208B
:10180C000120704700207047002070470388B3F513
:10181C007C4F01D3FFF7F8BF0846FFF7F3BF10B5B5
:10182C004A880488A2420DD1037B0C79234009D04D
:10183C00B2F57C4F08D3FFF7E7FF0B891B1A584210
:10184C00584110BD0020FCE70120FAE738B50D889F
:10185C00D488A5420AD10388B3F57C4F08D2FFF790
:10186C00D5FF13891B1A5842584138BD0020FCE79C
:10187C000120FAE72DE9F04F8BB04FF0000A0193ED
:10188C009DF850300593714BDFF8D0911B78049183
:10189C008046154608935746089A5FFA8AF39A428F
:1018AC0001D8862063E099F800300293D9F808300B
:1018BC000393029A98F80030934240F0BF8099F855
:1018CC000D30D80709D5039B1B7907934FF0000BFC
:1018DC00079A5FFA8BF39A4204D80AF1010A09F1CC
:1018EC001009D9E7039B1E68142303FB0B664146C2
:1018FC003046FFF794FF002800F09C803389069354
:10190C00002306999AB2914202D80BF1010BDFE742
:10191C00746809930C2202FB03442146424630466C
:10192C00FFF794FF2279099B00287BD0049B03B11D
:10193C001C6091061ED4464809E01A79920642BFF3
:10194C00D8783F18BFB20C339C42F6D84148059B5F
:10195C00074493B121463046FFF758FF2388B8F867
:10196C0002100246029800F0B8FF60BB7E200BB05C
:10197C00BDE8F08F0027384BE6E7002D35D0214627
:10198C003046FFF743FF2388B8F80210024602984E
:10199C0000F0A1FF0028E9D0DFF8C4902846237995
:1019AC00DB0615D521463046FFF730FF98F800606E
:1019BC00B8F802101495034622463046CC460BB0BC
:1019CC00BDE8F04F60473846DFF898902F46E6E7C1
:1019DC00019AA3785AB9E278A3F14101012908D8F8
:1019EC00013AD2B2394604F01DFA0020BFE7019A41
:1019FC00F2E7433B012B05D8023A92B2394604F088
:101A0C002BFAF2E7059B2BB9019B1BB1E3780199EB
:101A1C008B4218D8394617B902F0C8F8E5E702F03E
:101A2C0069F8E2E712F0300F02BFE0783F18BFB25E
:101A3C00013366E770890744BFB266E7039BD88819
:101A4C000744BFB249E7892091E700BF91210020EC
:101A5C00E43100201431002098C90200D431002058
:101A6C0015290000192900002DE9F04107790646D7
:101A7C0000254FF01408E8B2874201D800241AE080
:101A8C0008FB05F0D6F800C00CEB00043CF8000095
:101A9C0088421AD132B1802A10D194F90CC0BCF111
:101AAC00000F12DAB0F57C4F05D32046FFF7ACFEE1
:101ABC00984200D04BB92046BDE8F081402A04D1B1
:101ACC0094F80CC01CF0400FECD10135D3E70000AA
:101ADC00064B1B783BB1064B1A78824203D1587BDC
:101AEC0000F0010070470020704700BF91210020DA
:101AFC00D431002070B50A4B0A491D780023DAB2A4
:101B0C00AA4202D3FF22104670BD1C016618645C09
:101B1C00844202D1747BE407F5D40133EFE700BFB4
:101B2C0091210020D43100202DE9F0410D461646BC
:101B3C001F46FFF7DFFFFF280AD0074C04EB00100D
:101B4C003B46324629468068BDE8F041FFF78CBF22
:101B5C000020BDE8F08100BFD431002008B5134649
:101B6C000022FFF7E1FF003018BF012008BD08B5C7
:101B7C0013464022FFF7D8FF003018BF012008BDE4
:101B8C0008B513468022FFF7CFFF003018BF0120A5
:101B9C0008BD08B540220023FFF7C6FF003018BF70
:101BAC00012008BD08B580220023FFF7BDFF0030DF
:101BBC0018BF012008BD0000054B1B7833B1054B45
:101BCC001B78834214BFFF2000207047FF20704712
:101BDC0091210020D431002070B51D46FFF7ECFF99
:101BEC00044C04EB00102B468068BDE87040FFF7F6
:101BFC003BBF00BFD4310020F8B507460C46154654
:101C0C001E46FFF791FF78B1094B187858B1094B74
:101C1C001878B8420AD033462A462146FFF7DCFF33
:101C2C00003018BF0120F8BDFF20FCE70020FAE7C8
:101C3C0091210020D431002013464022FFF7DCBF55
:101C4C000022FFF7F9BF0000014B0001185C704740
:101C5C00D431002070B50D46FFF74CFFFF2818D08B
:101C6C000E4B03EB001082689AB1002311791846D1
:101C7C001426DCB2A14200D870BD146806FB0344E4
:101C8C00247B45B114F0400F1CBF0130C0B20133AE
:101C9C00EFE70020F0E714F0800FF5E7D4310020D7
:101CAC002DE9F0410F469046FFF724FFFF280BD09B
:101CBC00104B03EB00100023856829791C464FF06C
:101CCC00140CDAB2914202D80020BDE8F0812868E9
:101CDC000CFB0300067BB8F1000F08D016F0400F88
:101CEC0003D0BC42F1D00134E4B20133E9E716F081
:101CFC00800FF5E7D431002030B585B004460FF0E5
:101D0C00AEFB0546012001F0F9FF012C03D0FF2C9E
:101D1C003CD185423AD1292402237F22212103A8D8
:101D2C0007F09EFB03AB002240F20241009401201D
:101D3C0000F021FC02237F22222103A807F090FB54
:101D4C00012203AB40F202411046009400F013FC58
:101D5C0002237F22232103A807F082FB03AB02227C
:101D6C0040F202410094012000F005FC02237F2286
:101D7C00242103A807F074FB212300934FF6FD7276
:101D8C0003AB40F20241012000F0F5FB05B030BD81
:101D9C002DE9F3411C461B799E07054688461746DC
:101DAC004FD501AE02220021304601F0FFFE002D7E
:101DBC0008BF3546B8F1010F43D140F202439F42B0
:101DCC003FD1238863B92046FFF71CFD40B9237926
:101DDC00580605D402232A467F21212007F056FB02
:101DEC002388012B0CD12046FFF70CFD40B9237939
:101DFC00590605D402232A467F21222007F046FBF0
:101E0C002388022B0BD12046FFF7FCFC38B9227932
:101E1C00520604D42A467F21232007F037FB228860
:101E2C004FF6FD739A420CD12046FFF7EBFC40B9FC
:101E3C0023795B0605D402232A467F21242007F050
:101E4C0025FB02B0BDE8F0812DE9F04F8BB0804648
:101E5C0003910FF004FB444B04901B780593002472
:101E6C00059B9C4235D2B8F1FF0F0BD04046FFF7D3
:101E7C0041FEFF28044631D03C4B4FF0000903EBE8
:101E8C00041B1CE0394B049A03EB04131B7B934299
:101E9C00F2D00134E4B2E3E71B68142202FB0535EF
:101EAC002B89B3F5967F01D907F024F84FF0000A7F
:101EBC002A891FFA8AF39A4213D809F10109DBF82F
:101ECC0008301A795FFA89F5AA42E5D8B8F1FF0F04
:101EDC00DFD0039B13B94046FFF70EFF0BB0BDE8F4
:101EEC00F08F0C221FFA8AF369685343CF183A79A2
:101EFC00D0062FD49BF800008DF81C002888ADF874
:101F0C001E0012F0400F0CBF402080208DF82000E6
:101F1C00CB5AADF8223039462846FFF777FCADF89E
:101F2C0024005207FB7818D5022BBE6800D93668FE
:101F3C000123009300231946324607A8FFF79AFCA9
:101F4C00039B3BB13B46BDF81E209BF8001030466E
:101F5C00FFF71EFF0AF1010AAAE7022B94BF07F153
:101F6C000806BE68E4E700BF91210020D4310020B0
:101F7C000021FFF769BF10B501210446FFF764FF8C
:101F8C002046BDE81040FFF7D9BB10B5047B14EA1E
:101F9C00010310D0002201238B4203D3036953F8B1
:101FAC00220010BD1C4218BF01324FEA430318BF78
:101FBC00D2B2DBB2F0E71846F3E7F8B516461F4687
:101FCC009DF81820BDF81C300546FFF7ADFD78B123
:101FDC000421FFF7DAFF044650B1284601F096FEC3
:101FEC003A4631462846A047BDE8F84001F07DBE90
:101FFC00F8BD2DE9F74F0C9D9DF834B01F46814676
:10200C008A46BDF83830144612B30DB307B392F8B4
:10201C0004802A78618812F0080F14BF40228022B5
:10202C004046FFF781FD98B10821FFF7AEFF064649
:10203C0070B1404601F06AFECDE9005B3B4622469A
:10204C0051464846B04703B0BDE8F04F01F04DBED5
:10205C0003B0BDE8F08FF8B5BDF8185017461A4616
:10206C002B460446FFF760FDE0B175B90221FFF77E
:10207C008CFF0546B0B1204601F048FE394620469B
:10208C00A847BDE8F84001F030BE1021FFF77DFFF6
:10209C00064638B1204601F039FE2A46394620461C
:1020AC00B047EEE7F8BD73B5BDF8184016461A46B2
:1020BC0023460546FFF738FDB8B1C4B92021FFF718
:1020CC0064FF044670B1284601F020FE099B009382
:1020DC009DF81C209DF8203031462846A047044628
:1020EC0001F003FE204602B070BD8624FAE70024FE
:1020FC00F8E72DE9F04186680446007801F006FE09
:10210C00002514273279EBB29A4203D8BDE8F0418E
:10211C0001F0EBBD7B4332682078D15A02EB030807
:10212C0000F0E1FB01214046FFF72FFF034608B109
:10213C00207898470135E5E770B5084D084E002426
:10214C002B78E0B2834200D870BD06EB0010437BC5
:10215C00DB0701D5FFF7CDFF0134F1E7912100201A
:10216C00D43100202DE9F041194B1B7805460C4663
:10217C005BB318480378AB42064626D1437B03F089
:10218C00010239B143F0010343734AB101242046E3
:10219C00BDE8F0817173002AF8D04FF014080DE0FF
:1021AC00FFF7A7FFF3E71B6808FB04F41A19195B88
:1021BC00127B2846D209FEF733FA3C46B3681A79EB
:1021CC00671CE4B2A242EED8E0E70024DFE700BFD0
:1021DC0091210020D4310020002070472DE9F74FC9
:1021EC004C7D0193BDF830A09DF838B070B394B31A
:1021FC00012C18BF04249DF83C70DFF88880002661
:10220C003546BFB236F80800904218D108EB0600EC
:10221C0090F803E01EEA040F11D090F80290D94513
:10222C000DD31EF0100F91F80FC016D0BCF1000F9B
:10223C0005D0FFF7D1FFB1F810C0844510D004369B
:10224C00102EDFD1012003B0BDE8F08F002C14BF9D
:10225C0004240824CFE70224CDE7BCF1000FEED113
:10226C00AF420CD0AA450AD9019B0D9803F80590F2
:10227C0000880D9B013001351880ADB2DFE70020DE
:10228C00E1E700BFE4CA02002DE9F04F89B01D461A
:10229C00BDF848409DF850300193934623462A469A
:1022AC0007460E46FFF740FC8DF81470ADF816602B
:1022BC008DF81850ADF81AB0ADF81C40814618B91D
:1022CC00012009B0BDE8F08F05A9FFF7A8FA002896
:1022DC00F6D09DF84C3000259BB22E462F462C464E
:1022EC00029336E00C231FFA85F8B9F8002003FBA3
:1022FC0008F8D9F80430B2F57C4F03EB080A1AD36E
:10230C0033F8080058452ED3029BA3422DD901F077
:10231C0099FC9AF8020001F081FC019B43B19AF8F8
:10232C00043013F0010F0CBF0520072001F076FCE0
:10233C000134A4B219E033F80820ADF81A20514644
:10234C0005AA48460393FFF781FA039B0028D7D1CF
:10235C000135B9F80820ABB29A42C3D83C44A31B50
:10236C0058425841ADE70137BFB20136B6B2EFE77C
:10237C002DE9F04F8FB098469DF8703006930023EE
:10238C00BDF860908DF82C00ADF82E10ADF8322011
:10239C00009305460E46174608A91A460BA8089343
:1023AC00199C9DF868B09DF86CA08DF83080ADF844
:1023BC003490FFF75FFA089B002B00F09880BAF17D
:1023CC00000F07D19A785A4540F094801A79D107BA
:1023DC0040F193801A79520735D59A685168926802
:1023EC0009910A92987803F0B3FD089B059093F835
:1023FC0003A0BAF1020F17D803465246214609A88A
:10240C0003F04BFD059B0790524621460AA803F0AA
:10241C0044FD079B012B01D0013014D14FF0870AEA
:10242C0050460FB0BDE8F08F059B099852462146E7
:10243C0003F033FD0128F1D0059B0A985246214642
:10244C0003F02BFDE8E7069B002B59D1089B039466
:10245C00DB78CDF80090CDE901B33A4643463146DE
:10246C00284600F08FFA82460028D9D1089B0394A5
:10247C00DB78CDF80090CDE901B33A4643463146BE
:10248C002846FFF710FE82460028C9D1012300938D
:10249C00069B224619460BA8FFF7ECF9824600284A
:1024AC00BED1089B324629462046FFF771FC4346B5
:1024BC003A4631462846CDE901B4CDF8009000F0FB
:1024CC007CFA089B0394DB78CDF80090CDE901B33E
:1024DC003A4643463146284600F053FACDF8009070
:1024EC0043463A4631462846FFF7B5FD98E74FF08C
:1024FC00860A95E74FF08D0A92E74FF0880A8FE72E
:10250C004FF0000A8CE72DE9F04786B007460F9D87
:10251C009DF84060BDF838400094CDE901568846DE
:10252C0091469A4600F0D5F998B102280ED84FF092
:10253C000003049308BF0123CDE90263CDE90045F4
:10254C0053464A4641463846FFF712FF06B0BDE8EF
:10255C00F0870120FAE730B587B000240125CDE9DA
:10256C0003549DF82C5002950A9DCDE90045FFF7C8
:10257C00FFFE07B030BD30B587B000240125CDE992
:10258C0003549DF828500094CDE901354023FFF702
:10259C00EFFE07B030BD10B586B04FF0010C002433
:1025AC00CDE9034C9DF828400294099C0194BDF898
:1025BC0020400094FFF7DCFE06B010BD30B587B0AC
:1025CC0000258DF81030BDF828308DF80C00ADF8D2
:1025DC000E10ADF81220ADF814300095BDF8303067
:1025EC000B9A0D9C029502A903A8FFF743F918B9A1
:1025FC0014B1029B9B78237007B030BD1FB5089CAB
:10260C0003949DF81C400294069C019400240094B1
:10261C00FFF7D4FF04B010BD30B585B000249DF891
:10262C0020500394CDE9013500944023FFF7C6FFF9
:10263C0005B030BD2DE9F04FDFF8CCB099B04FF0BC
:10264C000008FFF7BDF85FFA88F5A84202D819B068
:10265C00BDE8F08F2D010BEB05034FF0000904933F
:10266C000BEB05035FFA89F49B681A79A24202D836
:10267C0008F10108E5E71B68142202FB043400266C
:10268C002289B3B29A4202D809F10109E8E70C2376
:10269C001FFA86FA03FB0AFA6368059303EB0A0731
:1026AC0006F028FC39462046FFF7B0F8049B218839
:1026BC0093F800C0059B33F80A203B794FF0000ECD
:1026CC0013F0400F0DF11C0A4FF04103CDE9023E0F
:1026DC00CDE9000A14BF802340236046FFF76EFF4C
:1026EC00862806D0B878FFF781F820B1504601F063
:1026FC00DAFA0136C4E7B878FFF77EF80028F8D08C
:10270C00504601F0D5FAF4E7D4310020F0B597B07B
:10271C001646BDF87470042F48D90DF113040394B8
:10272C004124029405ADBDF8704000940195FFF76B
:10273C0045FF0446A0BB9DF81300A0F14103012BFB
:10274C0021D8284601F0AFFA0130C4B2E31CBB42D9
:10275C002CDA304601F076FA154E002001F05EFAC4
:10276C009DF8130001F05AFA33881A19512A1DDC0E
:10277C001048A4B222461844294601F0BBF930880F
:10278C000444348012E0A0F14303012B04D8284602
:10279C0001F08EFA0230D8E7FEF7E6FF0446D5E7E3
:1027AC00304601F04FFA204601F038FA17B0F0BD70
:1027BC00283200203832002038B5C37B05460BB1D7
:1027CC00832038BDC47C2CB904F0D8FF20B9EB7B36
:1027DC00002BF5D18120F4E72046F2E738B5C37B16
:1027EC0005460BB1832038BDC47C6CB9017D828950
:1027FC008B1C9A420AD3806801F04FFA0BF0B0FEA2
:10280C0030B9EB7B002BEDD18120ECE78020EAE79F
:10281C002046E8E7C37B10B504460BB1832010BDFE
:10282C00C37C1BB1012B10D08120F8E7017D82897C
:10283C008B1C9A420CD3806801F02FFA0CF062FAD0
:10284C0040B9E37B002BE9D1EEE70CF073FAF7E724
:10285C008020E4E70020E2E738B5C37B002B437D02
:10286C0014BF8325C325012B04460FD10368028AAC
:10287C0059885879FFF784F940B123685B88032B9A
:10288C0025D12046BDE83840FFF7A8BF637DF3B9DA
:10289C002368228A59885879FFF769F9B8B12368F7
:1028AC005B88032B09D040F2024293420AD073B9E1
:1028BC002046BDE83840FFF77FBF2046BDE83840D2
:1028CC00FFF7A8BFE37B002B14BF83258125284687
:1028DC0038BD0120704701207047012070477047B8
:1028EC00B520704770477047002070470020704734
:1028FC000020704700207047002070470020704770
:10290C00002070470020704701207047012070475D
:10291C00B52070470020704700207047002070479A
:10292C0000207047704700207047704700207047A8
:10293C007047002070478420704770470020704714
:10294C00704770477047704770470020704770475A
:10295C0000207047012070477047704770477047E0
:10296C00012070470020704700207047034B1B6804
:10297C001878012808BF0220704700BF2C220020C5
:10298C007047704700207047002070470020704748
:10299C0000207047002070470020704700207047CF
:1029AC0000207047002070477047B520704700200A
:1029BC007047002070470020704770477047704781
:1029CC007047B520704770477047704700207047BC
:1029DC00704740220321012003F006BC0122032191
:1029EC00104603F001BC00220321012003F0FCBBC4
:1029FC0002220321012003F0F7BB01220021092050
:102A0C0003F0F2BB02292DE9F84F05468A4602D99C
:102A1C0063B1042908D85B49022001F0B3FD4FF0E3
:102A2C00000B5846BDE8F88F42F004020C9C2A704B
:102A3C00002B3ED06B701B0AAB70032702F094FF87
:102A4C0007F1020BE85501379DF82830EB554FF094
:102A5C0000095FFA89F30B9AD65C002EE1D0732E35
:102A6C0050D8A6F14C01C9B2162904F10408276804
:102A7C0029D8454B23FA01F1C94311F001012CD19E
:102A8C0060684C2E04F1080884B214D14FF6FF7123
:102A9C0020468C4214BF022100210BEB04020A4495
:102AAC0092455EDA621839493346022001F06AFD1C
:102ABC00B5E70127C2E7532E0DD1C0B2B0F1FF012B
:102ACC0018BF0121E9E76C2E07D1384601F0F0F868
:102ADC00023084B200210846DFE7732E04D1384659
:102AEC0001F0E1F80130F4E7A6F13004E2B2092A72
:102AFC0001D8A4B2EEE7A6F14102062A0AD8A6F143
:102B0C003704F6E7752E0BD0762E10D0782E10D019
:102B1C00772E10D032461E49022001F033FD7EE79D
:102B2C00012104F10408206800242746B5E702219E
:102B3C00F7E70321F5E70421F3E70CF1010E013A65
:102B4C0005F80C00D2B2000A1FFA8EFC002AF4D150
:102B5C008B441FFA8BFB84B137B9334622460D499F
:102B6C00A3E7DC460A46F1E705EB0B0022463946A3
:102B7C0000F0C0FFA3441FFA8BFB09F10109444686
:102B8C0067E700BFF3DC02008100400031DD02008A
:102B9C0018DD020064DD020010B5044C206004480E
:102BAC00018004490A60044A136010BD9C21002076
:102BBC00A0210020982100209421002008B430B5D9
:102BCC0086B009AB0C4653F8045B0D490593098894
:102BDC000092CDE9015302460A4800230068FFF732
:102BEC0011FF094B1B681880084B1B684FF48A5265
:102BFC005C80DA8006B0BDE8304001B0704700BFA1
:102C0C00A02100209C21002098210020942100204C
:102C1C00044B054A19681268098803460348006882
:102C2C00FDF7A3BE982100209C21002094210020B8
:102C3C000020FFF7EDBF000007B5074B1B681B8892
:102C4C000192064A12680092054A1268FDF761FE6D
:102C5C0003B05DF804FB00BF982100209C210020EC
:102C6C00942100200022FFF7E7BF000007B5064BB8
:102C7C001B681A880091054B05491B680968FDF70C
:102C8C002FFE03B05DF804FB982100209C2100204E
:102C9C00942100200021FFF7E9BF0000014B1868C8
:102CAC00704700BF94210020024B1B6818715971AA
:102CBC00704700BF94210020F8B50D468C680A6857
:102CCC0026490646202006F054FD6B687BB9244942
:102CDC00202006F04EFD20200DF048FC214920203C
:102CEC0006F05CFD2020BDE8F8400DF03FBC002E46
:102CFC00F1D01D4D1D4E1E4F013C14F8013F23B960
:102D0C001849202006F04AFDE5E7752B16D0762BE6
:102D1C0016D0772B16D0732B16D0722B16D0712B96
:102D2C0016D0622B16D06E2B16D01249124A2A2BB3
:102D3C0018BF1146202006F01CFDDEE72946F9E7F6
:102D4C003146F7E73946F5E70C49F3E70C49F1E76B
:102D5C000C49EFE70C49EDE70C49EBE7C91203000E
:102D6C0026DE0200D7DD0200E4DD0200D8DD020021
:102D7C00EFDD02002DDE02002ADE0200FBDD020088
:102D8C0005DE020010DE02001BDE020025DE020062
:102D9C00F0B5214A92F87B30184452FA80F01F4B60
:102DAC0090F865C090F866501F78A5EB0C050026CE
:102DBC00EDB23046F4B2A54225D90CEB0603134410
:102DCC005B7811B10CB92D2B17D0782B1FD0582B49
:102DDC0005D108B137240AE0013C012C14D9602B31
:102DEC0017D8402BF6D83A2B34BF302400241B1BA9
:102DFC00DBB29F4203D900FB07300136DAE705232B
:102E0C0082F879300020F0BD10270020F5E700286B
:102E1C00E2D05724EBE700BFA22100205E1B00206C
:102E2C00014B1B6818687047F4310020094A0023D5
:102E3C00FF21137082F8783082F8653082F8773091
:102E4C0082F8793082F87A1082F87B30024A13606B
:102E5C00704700BFA2210020F4310020034B93F8EF
:102E6C00770093F87B30C01AC0B27047A2210020C3
:102E7C000021FFF78DBF000010B50A4B93F87B20A3
:102E8C00024453FA82F292F8652013445C78A4F160
:102E9C002D0359425941FFF77BFF2D2C08BF4042AF
:102EAC0010BD00BFA221002030B50C4A92F87B3037
:102EBC000344C043DBB2C00F39B1D51895F8664056
:102ECC0095F86550641B241A0C7042FA83F393F83E
:102EDC0065301844024B184430BD00BFA2210020BD
:102EEC00A3210020F7B50E460DF1070115461C462F
:102EFC00FFF7DAFF9DF80730AB42074688BF8DF825
:102F0C0007501CB19DF807402C1BE4B222463046FA
:102F1C00002100F04BFE30199DF80720394600F0D7
:102F2C00E9FD9DF8070003B0F0BD38B508220C464A
:102F3C000123FFF7D7FF04F10803621E043413F8D2
:102F4C00011D12F8015F1D70A3421170F7D138BD3D
:102F5C0038B5014605460120FFF7AEFED5E9014321
:102F6C006CB91C46084D236863B12946202006F035
:102F7C0000FC21460020FFF79FFE0C34F3E71B7882
:102F8C006E2BEFD038BD00BF0AE9020008B504492A
:102F9C00202006F0EEFB2020BDE808400DF0E6BA3C
:102FAC0098DD020038B5FFF7F1FF064D00246119DA
:102FBC000C34631953F80C3C03B938BD0020FFF7EF
:102FCC007BFEF4E7FCCA02002DE9F84F1F4B204DA5
:102FDC0053F820201F49202006F0CBFB2B681BB98F
:102FEC00BDE8F84FFFF7DEBF1B4FDFF874A0FFF70B
:102FFC00CDFF0026B94697F87B30F4B2013B9C42DA
:10300C0004DB2868BDE8F84FFFF7A2BF47FA86F348
:10301C004C4493F865800023C84494F8662094F8D7
:10302C006510521A03F1010BD2B2DBB2934205D3F5
:10303C000A49202006F09DFB0136DCE7434451464B
:10304C005A78202006F095FB5B46E6E7601B0020D3
:10305C00F431002093DD0200A22100200BE90200D4
:10306C0041FC02002DE9F74F824C94F87730002B8D
:10307C0000F0A380804B1B7813F0010F04F10107C3
:10308C001FD000257D4E14E06319202093F8662094
:10309C0093F86530D21A44FA85F3D2B293F86510DE
:1030AC0039440DF05EFA3146202006F062FB013502
:1030BC00EDB294F87730AB42E6D87149202006F097
:1030CC0058FB94F877300193DFF8C0E16D4B002684
:1030DC009EF800801EF801CF1EF8012C4FF000095D
:1030EC00ACEB020CB8445FFA8CFC4D461868002817
:1030FC0053D00138C24619E02AB9002D4BD04FF0FD
:10310C0001090C33F2E71AF8011BA1F1410BBBF1D9
:10311C00190F98BF2031A2F1410B98BFC9B2BBF176
:10312C00190F9CBF2032D2B28A42EAD1AAEB080115
:10313C00614510F8012FDFD1002ADED11D46524B1C
:10314C001D6094F87B30013384F87B30D5E9012382
:10315C000136F6B2002A36D01B786E2B32D03F2BBC
:10316C0024D04FF000094F464FF0070A4FF0040BE4
:10317C005FFA89F0811994F877C0AA68C9B28C45B6
:10318C00D35D28D893B117447B782A2B1CBF03231B
:10319C0084F879300AE01D46B3E7B9F1000F01D18C
:1031AC00002DCCD1022384F87930002594F87900D5
:1031BC0000285CD1686800F02FF903B0BDE8F04F2F
:1031CC00FFF734BE1346019AB24281D8032284F829
:1031DC0079201D46EAE7732B08D8712B0AD2002BF5
:1031EC0043D0622B30D084F879A016E0A3F175029D
:1031FC00022AF8D8752B1ED0762B1FD0732B20D01B
:10320C00722B47F6FF7818BF4FF0FF380121FFF7FC
:10321C00BFFD404501D984F879B0AB683B4409F156
:10322C0001095B782A2B94F879301CBF0137FFB267
:10323C00002B9DD0BAE74FF0FF08E7E74FF6FF7879
:10324C00E4E74FF07F08E1E794F87B30184454FA38
:10325C0080F090F8653023445B78222BDDD07B2BFB
:10326C00DBD0052384F87930D7E70323FAE7FFF79F
:10327C00ABFEA2E7A22100201E2200200BE90200D7
:10328C00D5DD0200FCCA0200F43100200722002028
:10329C002DE9F3415E4C5F4F06460D464FF000089A
:1032AC0066B90DF1070128460DF054F978B12628BE
:1032BC0000F0A980012384F879304BE0002D00F058
:1032CC00A28016F8013B8DF80730013DEDB23A783B
:1032DC009DF807303B700D2A01D10A2BE0D00D2B45
:1032EC000CD0A3F10A025142514122788846042A9B
:1032FC00D6D8DFE802F0051D263C31000121F4E7A9
:10330C0021B1FFF7AFFE4FF00108C9E7202B63D0C6
:10331C00222B07D10223237094F87820642A5DD1E4
:10332C000623C8E77B2B01D10323F4E70123F2E743
:10333C0009B9202BF0D194F87730112B3FD103230E
:10334C00B9E7222BF7D00029E6D0052384F8793091
:10335C004FF0010804232370B8F1000FA0D094F8AB
:10336C00790008B1FFF730FEFFF760FD98E77D2B81
:10337C0094F87A0003D1FF28DDD005239BE7602B5E
:10338C0013D8402B13D8392B8CBF002230229A1A19
:10339C00D2B20F2A10D8FF280BD002EB0012FF2359
:1033AC008DF8072084F87A30B6E75722EFE73722FA
:1033BC00EDE784F87A2073E7202BDED170E7013338
:1033CC00DBB284F87730234494F8782083F86520B6
:1033DC0000232370002994D1884661E72378012BC0
:1033EC0009D19DF80730A3F1410119299CBF203365
:1033FC00DBB28DF80730A3189DF807105970013215
:10340C0084F878204CE7404602B0BDE8F08100BF5C
:10341C00A22100201F22002010B5054B044618786D
:10342C0000F05CFCA047BDE8104000F05EBC00BFA3
:10343C00302200207FB501A8FDF796FD01AA0349B3
:10344C00042001F09FF807B05DF804FB08E10200CE
:10345C002DE9F04F18228DB0FF230DEB0200002157
:10346C008DF80A3028F0C9FC0DF10B014FF0FF303C
:10347C00FFF71AFDFFF7DEFF41F202029D4904201F
:10348C0001F080F804A8FEF751F806A90DF10A0026
:10349C00FEF752F80420984901F090F8042001F04E
:1034AC005DF810B104A800F0DFFF9DF922309DF803
:1034BC0023209249042001F065F819F0BBFD831E0E
:1034CC00DBB2FC2B05462AD88D498E4E8E4FDFF889
:1034DC00A482042001F056F801242246314604202F
:1034EC0001F06CF803A9E0B219F04CFD91280246EA
:1034FC0000F09580932800F09280002840F0948092
:10350C009DF90C1000919DF80E309DF80D207F490F
:10351C00042001F037F80134E3B2AB42DDD3BDF83F
:10352C002040FDF725FE224603467949042001F090
:10353C0045F80420774901F041F8042001F00EF819
:10354C0010B106A800F090FF7349042001F01AF89E
:10355C001EF058FB04461EF04FFB224603466F49F3
:10356C00042001F00FF8FEF701F86D49042001F07A
:10357C0025F89DF80A20FF2A5BD06A49042001F047
:10358C001DF86549DFF8F081042000F0FBFFFDF722
:10359C00DFFF654A65490346042000F0F3FF19F08C
:1035AC00B9FC63490246042001F008F8FDF7D6FF88
:1035BC000446FDF7D9FF224603465E49042000F07D
:1035CC00E1FFFEF7FDF85C490246042000F0DAFF4B
:1035DC000025FEF7F5F8ECB2A0422FD8012257498E
:1035EC00574C042000F0CEFF002000F077FB554B29
:1035FC0055490022042000F0C5FF236853B11A7806
:10360C005249042000F0BEFF236851495A78042027
:10361C0000F0B8FF00F069FB0DB0BDE8F08F394643
:10362C00042000F0AFFF76E74146042000F0AAFF2B
:10363C0071E74849042000F0C1FFA2E7464B474F11
:10364C0003EB04162046D6F80890FEF7FDFA8246E6
:10365C002046FEF7BBF8002814BFC346BB462046E5
:10366C00FEF7F2FA02F09CF8002814BF40463846E8
:10367C005B46009052463A49DFF800B1042000F056
:10368C009DFFB1797388327B0191B1880091042040
:10369C00344900F077FF002699F80430F4B2A342C5
:1036AC0001D8013595E7D9F800702F482F4914231C
:1036BC005C4307EB040A3B5B9AF90C2011EA2201EC
:1036CC0038BF01460A460420594600F077FF042013
:1036DC0000F044FF38B150463C5BFEF795F80146CC
:1036EC00204602F0CBF82249042000F04BFF0136B3
:1036FC00D2E700BFC8DE0200E3DE02000FDF0200EB
:10370C00EADE020000DF020024DF020007DF020015
:10371C002FDF02004DDF020084C5020056DF0200DD
:10372C0077DF0200A91503008ADF020093DF020095
:10373C00A1DF0200B5DF0200C4DF020038E00200A6
:10374C002C22002044E0020052E002005EE0020065
:10375C0070E0020082DF0200D4310020A7DE0200FC
:10376C00CFDF0200EFDF0200BCDE0200B0DE0200A1
:10377C00D7DD0200C3F002009FDE020021E0020050
:10378C0008B50020FFF774FBBDE8084080B200F0DC
:10379C0063BF08B50020FFF76BFBBDE8084080B2A3
:1037AC0000F06EBF70B5074D074E00240C34631942
:1037BC0053F80C2C02B970BD3146042000F0E2FE27
:1037CC00F4E700BFFCCA0200C912030005F0B8BC44
:1037DC0008B50020FFF74CFB054B1A7810F0FF0FD3
:1037EC0014BF42F0010222F001021A7008BD00BFA2
:1037FC001E2200202DE9F8430DF0FCFF104EDFF8DF
:10380C004C80DFF84C9007460025EBB256F833405D
:10381C000CB9BDE8F88358F823204946012000F084
:10382C00CDFE23782BB90749012000F0ABFE013502
:10383C00EBE762680449D21B012000F0A3FEF6E717
:10384C00A8C00200FFE0020046110300F81A002095
:10385C00F8E0020010B521F0E7FF0D490446012005
:10386C0000F0ACFE022C0DD0032C0DD0012C0DD190
:10387C000849012000F0A2FE07490120BDE81040D4
:10388C0000F080BE0549F4E70549F2E70549F0E789
:10389C0089E00200A6E002005B140300ACE0020029
:1038AC00BBE00200CBE002002DE9F843114EDFF83B
:1038BC0054800025FDF784FFECB2A04201D8BDE88E
:1038CC00F8832701204616F80790FDF77FFF0A4B77
:1038DC000A49002818BF43464A46012000F06EFEF4
:1038EC00F05DFDF7A0FE0649012000F04BFE01350E
:1038FC00E0E700BFD431002048E20200EDE0020016
:10390C00D7DD02003EE2020008B50020FFF7B0FA56
:10391C00094B1B681B681978A1F165035942594181
:10392C00C0B2FEF71FFC28B904490120BDE80840CD
:10393C0000F028BE08BD00BFF4310020D3E0020027
:10394C0049BA89B24840C0F303114140080380B220
:10395C004840C3B280EA431070470000014B18780E
:10396C00704700BF20220020014B1870704700BF29
:10397C002022002015F058BE38B5A0F143030546AF
:10398C000A2B31D8DFE803F0060A0A121230303065
:10399C0030301100BDE838400EF0CEBD0EF098FD71
:1039AC0020B10EF0C9FD0028FBD138BD114C207898
:1039BC000028FAD10123443D23700DF04FFA032D5A
:1039CC000DD8DFE805F00606090240F601000DF0FF
:1039DC00B3FE00232370E8E740F60200F7E77A21F4
:1039EC00054804F0ABFCF4E78C210348BDE83840F3
:1039FC0004F0A4BC2122002017E10200704770479C
:103A0C007047704770477047704770470020704789
:103A1C007047704770470020704770477047002010
:103A2C0070477047704770470020704770470120FF
:103A3C007047012070477047704770477047704758
:103A4C00704700002DE9F047204DDFF8A090DFF81B
:103A5C00A0A000245FFA84F8404619F0F7FAFF287A
:103A6C0006460CD122461A49287805F097FE28788C
:103A7C0001340CF07BFD142CECD1BDE8F087154B18
:103A8C0059F82420144947B213EA270338BF534688
:103A9C00287805F083FE002FE9DA14B1B8F1030F92
:103AAC0008D10E4B0E49287816F0010F18BF194695
:103ABC0005F074FE0A2CDAD10A4B0B49287816F063
:103ACC00010F18BF194605F069FED0E75D1B0020F9
:103ADC0051E20200D7DD020079E2020014E202009A
:103AEC002AE202003CE2020046E20200C0E10200CF
:103AFC0062E702008842F0B54FEA92031AD89BB2F3
:103B0C009E00871904460D4604370434BC4205F167
:103B1C0004053AD1C3EB8333314402EB8303013EFA
:103B2C00304411FA83F3994220D011F8012B00F89C
:103B3C00012FF8E7541E20449BB22144A0EB8306CE
:103B4C0004460D46043E043CB442A5F104050ED1D6
:103B5C006FF003045C43C3EB833302EB8303214418
:103B6C009BB201342044CB1A994209D1F0BD2F7974
:103B7C002771EF78E770AF78A7706F786770E2E71E
:103B8C0011F8012900F8012DEEE715F804CC04F822
:103B9C0004CC15F803CC04F803CC15F802CC04F8CB
:103BAC0002CC15F801CC04F801CCAEE702449042EB
:103BBC0000D1704700F8011BF9E710B50138013945
:103BCC000AB9104606E010F8014F11F8013F9C426B
:103BDC0001D0E01A10BD013A92B2F1E70A4B10B5D0
:103BEC0000241C70FDF7C4FA084B214618805222A1
:103BFC000748FFF7DBFF074B07481C8021460C22C8
:103C0C00BDE81040FFF7D2BF8522002036320020DD
:103C1C0038320020283200202A32002007490B8835
:103C2C00512B9FBF064AD05401339BB29DBF0B80D2
:103C3C0003F1FF3398180020704700BF2832002092
:103C4C003832002038B50546C0B2FFF7E7FF04460E
:103C5C00280AFFF7E3FF14B1002808BF0024204610
:103C6C0038BD00001944914208B509DC014400201C
:103C7C0063B111F8012D013B02EB0020DBB2F7E739
:103C8C0002201A46024900F07DFC002008BD00BF4E
:103C9C006EE302000423FFF7E5BF08B50223FFF72C
:103CAC00E1FF80B208BD0078FF2808BF00207047F4
:103CBC0008B502220021FFF7F0FF4FF6FF73984280
:103CCC0008BF002008BD0000024B034A1A60002008
:103CDC00704700BF2C2200208EC90200002814BFA0
:103CEC0070200020704700207047002070477047FC
:103CFC00014B1878704700BFD431002008B5FDF790
:103D0C00F9FEFF280CBFFF20002008BD08B5FFF707
:103D1C00F5FFFF280CBFA320002008BD0023037073
:103D2C0070470078003018BF01207047FCF71CBCAE
:103D3C00FCF727BC10B5182200210446FFF736FF0C
:103D4C002046FEF7EFFD0020FFF792F8E07201200D
:103D5C00FFF792F8A0720220FFF78AF82081FFF794
:103D6C007DF8032808D90320FFF782F8E37A03F0E3
:103D7C001F0343EA4010E07210BD00007FB518220B
:103D8C000021684628F039F86846FFF7D3FF6846EB
:103D9C00FDF7C8F8044A05490346042000F0F2FB7D
:103DAC0007B05DF804FB00BF491A030036E40200BB
:103DBC0010B50020FFF75CF8041C4FF0010018BF91
:103DCC000124FFF755F80849A222002818BF014624
:103DDC0020461AF0E7FD054A05490346BDE81040A8
:103DEC00042000F0CFBB00BF00F8FF075DF4020019
:103DFC0036E4020070B50020FFF73AF804460120C3
:103E0C00FFF736F805460220FFF732F8E4B2C2B2EB
:103E1C00201C294618BF01201AF01DFE034A044934
:103E2C000346BDE87040042000F0ACBB82E4020005
:103E3C0036E402000149042000F0A4BBD6E30200E2
:103E4C0008B50C490020FFF770F80A48FEF7B7FDDB
:103E5C000420094900F0B2FB042000F07FFB10B1F4
:103E6C00044800F001FB05490420BDE8084000F0BF
:103E7C0089BB00BF7B220020C8E30200D7DD020013
:103E8C0010B51CF08DF8044A04490346BDE81040F7
:103E9C00042000F077BB00BF37D8020036E40200E4
:103EAC0010B50020FEF7E4FF002104464FF0FF3070
:103EBC00FEF7FAFF0178A1F162035942E0B25941D1
:103ECC00BDE81040FCF7E2BD08B5FEF77AFD0349EA
:103EDC000246BDE80840012000F054BB85E3020017
:103EEC0008B5FEF715FD03490246BDE80840012060
:103EFC0000F048BB99E3020010B50020FEF7B8FFB4
:103F0C000121C4B2A1400023FE224FF6FF7021F024
:103F1C0075F82246034603490420BDE8104000F022
:103F2C0031BB00BFABE3020007B502A8032320F8A6
:103F3C00043D1BF049FA04490246042000F022FB20
:103F4C0003B05DF804FB00BF1AE4020008B50020C2
:103F5C00FEF78EFFC0B228B104490120BDE808402D
:103F6C0000F010BB024B187008BD00BF97E40200B4
:103F7C003022002007B56846FDF7D8FAFDF7F8F8AF
:103F8C0008490246012000F019FB684600F06CFA63
:103F9C00FDF7F0F804490246012000F0F3FA03B0F3
:103FAC005DF804FBF1E302000AE4020073B50020A3
:103FBC00FEF75EFFC4B20120FEF75AFFC5B2022025
:103FCC00FEF75AFF46B2FEF749FF032812D9032029
:103FDC00FEF74EFFC0B2009033462A462146012020
:103FEC0023F0F2F840B90949012002B0BDE8704055
:103FFC0000F0C8BA0020EEE70090054B054A0649D0
:10400C00012000F0BFFA02B070BD00BF3EE4020018
:10401C0046E4020047D802005AE4020007B501202A
:10402C0023F0D4F8034638B9084A0949012003B0F3
:10403C005DF804EB00F0A6BA0090044B054A064963
:10404C00012000F09FFA03B05DF804FB46E4020087
:10405C006FE402005CD802005AE40200037813F00B
:10406C00050F37B504460CD04388062B14D1826853
:10407C00838852681449127800920420134A00F085
:10408C0081FA2378012B1DD0104A1149042003B06A
:10409C00BDE8304000F076BA2BB982880D49042077
:1040AC0000F070FAEDE7012BEBD185680A4904208A
:1040BC0000F084FA284600F0D7F90849042000F0F3
:1040CC0061FADEE703B030BDC4E40200E4DB0200B9
:1040DC0014E50200E0E40200FCE40200D7DD02007B
:1040EC00094B1B681B681B78652B084B0CBF012206
:1040FC0000221A701978064A064B0420002908BFC2
:10410C001A46054900F03EBAF43100205C1B002031
:10411C00F1DA0200E5D7020047E60200FEF745BCE3
:10412C0037B50020FEF7A4FE05460120FEF7A0FEE1
:10413C00054B1C88054B009382B20123A9B2204683
:10414C0000F0F5FF03B030BD141C002069400000E6
:10415C002DE9F04F384D394FDFF8F480DFF8F4904B
:10416C000FCD91B00BAC0FC42B68354923600420E4
:10417C0000F008FA00263446FDF7EEF9F5B2A84235
:10418C000AD8FDF7E9F9224603462E49042000F02F
:10419C00F9F911B0BDE8F08F07A9284626F06EFE9C
:1041AC000246002842D19DF81C30032B84BF042307
:1041BC008DF81C309DF81C30002B35D02A4641461A
:1041CC00042000F0FBF99DF81C3010AA02EB8303CD
:1041DC00494653F8142C042000F0F0F99DF82030D7
:1041EC00BDF81E209DF829A09DF81DB0059328460A
:1041FC00049226F03BFE049A059B029001920093D8
:10420C0004205B4652461049013400F0D7F90420D3
:10421C00E4B200F0A3F918B10DF1210000F024F97B
:10422C000A49042000F0AEF90136A5E7394604200E
:10423C0000F0A8F9F8E700BFB0E4020074E5020052
:10424C0026E5020094E5020053E50200D7DD0200EA
:10425C0002DF0200C912030027F008B808B50020DD
:10426C00FEF706FEBDE80840C0B2FCF7BBBF00007D
:10427C00084B1B681B685B78652B02D1002001F092
:10428C0089BB6E2B01D10120F9E7662B01D10220ED
:10429C00F5E77047F4310020054B1B681B685B7811
:1042AC00A3F1660253425341024A1370704700BF98
:1042BC00F43100203C1C002010B5002086B0FEF725
:1042CC00D7FD694604460120FEF72FFE012310227C
:1042DC0002A90220FEF706FEE1B202AB6A460020FC
:1042EC0027F0CCF80446042000F038F918B1214628
:1042FC000448FCF7ADFB0449042000F043F906B078
:10430C0010BD00BF3AE60200D7DD020010B58CB03C
:10431C000023122207A90220FEF7E4FD03AA01469E
:10432C0007A8FDF785F9044688B1BD2804D11449C6
:10433C00042000F027F908E0022801D11149F7E721
:10434C0002461149042000F01DF90CB010BD01A962
:10435C000120FEF7EAFD2046FEF78AFD03ABC1B251
:10436C0001AA204627F08AF80446042000F0F6F84B
:10437C0018B121460548FCF76BFB0549D8E700BF8F
:10438C00BDE50200E0E502001BE602003AE6020091
:10439C00D7DD02007FB50020FEF76AFD044602203F
:1043AC00FEF766FDC6B23046FFF7B0FCE4B2054638
:1043BC00E8B901208DF80000FEF75AFDADF80200B7
:1043CC0003208DF80160FEF753FD0DF105018DF80A
:1043DC0004000420FEF7A9FD0DF041F869468DF8A4
:1043EC000D00204626F0CCFD0546FFF77EFC2B4643
:1043FC0022460349042000F0C5F804B070BD00BF8C
:10440C00ABE50200F8B506460C4615461F4600F013
:10441C00A5F818B1013C2544AC4200D1F8BD14F804
:10442C00012F3946304600F0C9F8F5E730B4044D99
:10443C00044C002B14BF2B46234630BCFFF7E2BFC5
:10444C006FE6020070F0020070B5054608460C4697
:10445C00FFF729FC611C82B2024B2846BDE8704074
:10446C00FFF7D0BF41FC020000B502460C49C379EE
:10447C000888117889B0069151780591917804914A
:10448C00D17803911179029151790191927900922D
:10449C0004493E2200F092F809B05DF804FB00BF1D
:1044AC003222002073E602002DE9F047104EDFF8AF
:1044BC0050A0104F0546884691460024AC4201D1CD
:1044CC00BDE8F08708EBC401308853460822FFF79B
:1044DC0099FF01343088B9F1000F07D1064AA54283
:1044EC0008BF3A46054900F069F8E7E73A46F9E7AC
:1044FC0032220020D5DD0200D7DD0200C8120300F5
:10450C006FE60200014600220220FFF7CDBF00003B
:10451C002DE9F0410E4C0646208800F01FF8A8B19A
:10452C000C4FDFF834800025F3070AD518B9414643
:10453C00208800F043F820882A46394600F03EF8DF
:10454C00002001351B2D4FEA5606EDD1BDE8F08158
:10455C00322200202E0F03001AC502004FF6FF7303
:10456C00984208D0030A08D1054B1B78034214BFAC
:10457C00012000207047012070470020704700BFC9
:10458C00161C00200EB417B505AA044652F8041BDD
:10459C000192FFF7E3FF40B1202005F012F9054925
:1045AC00202005F0E6F8044B1C8003B0BDE8104059
:1045BC0003B07047D5DD0200322200200EB417B5CF
:1045CC0005AA044652F8041B0192FFF7C7FF20B15D
:1045DC00202005F0F6F8034B1C8003B0BDE810401A
:1045EC0003B0704732220020F7B50F4F0F4E104D1D
:1045FC0000240120A04080B257F82420FFF7AEFF22
:10460C00002814BF3046284613460090224609491C
:10461C00202005F0C3F8013420200BF0A7FF042C58
:10462C00E7D103B0F0BD00BF88E602009CE60200B3
:10463C00A0E60200A3E602000122FF210148FFF7D9
:10464C00B5BA00BF161C0020012200210148FFF75B
:10465C00ADBA00BF161C00200122430100F0070078
:10466C0002FA00F003F47F4303449BB21A0A01BF21
:10467C0002490A7813430B70704700BF161C0020C8
:10468C000122430100F0070002FA00F003F47F431B
:10469C0003449BB21A0A01BF02490A7822EA0303B7
:1046AC000B707047161C002013B50368044658792C
:1046BC0001F076F888B923685A88032A0DD0E17C7A
:1046CC005B790120CDE900210849094AFFF75AFF1F
:1046DC000121204601F055FA05E02046FEF7BCF812
:1046EC0001460028F5D1012002B010BDDDE6020024
:1046FC00E5D702002DE9F04F8BB0C27C0592427DCC
:10470C0003688668B0F80CB090F814905F88002AA3
:10471C0014BF8022402205465879069201F040F8D9
:10472C00C0B9059B052B04D8059A2D23D340DB0774
:10473C0010D4032F0ED0AF490120FFF723FFAE4951
:10474C00059BAE4A0220FFF71DFF0121284601F010
:10475C0018FA4BE1EB7B1BB12A8A002A00F042824B
:10476C00A74A00211180697D0029904614BF0020C2
:10477C0008200BB140F00400FFF750FAEB7B13B1AB
:10478C00288AFFF75FFAA87CFFF748FA059B1FFA07
:10479C0089F4162B00F22082DFE813F017003A019F
:1047AC005B00480075015B0022017E013601870128
:1047BC0090019901F300AF011E021E021E02C501F9
:1047CC00EE01C5010602F300AF010120FFF726FA46
:1047DC00631C5B4502DB01F087F907E15A46214671
:1047EC003046FFF75AFA2B6881465879B8F80030F2
:1047FC00C3F152039BB201932B8A00934A46069B4A
:10480C003946FCF7A0FF70B92B685879B8F800301E
:10481C00C3F152039BB201932B8A00934A46069B29
:10482C003946FDF773FFA21C94B2D1E70420FFF7C1
:10483C00F5F94FF00009A31C5B4520DBB9F1000F23
:10484C00C9D1EB7B2C7D002B6D4B0CBF02220422BB
:10485C001A800420FFF7E2F94FF0000AD04604F169
:10486C000309CB454DDC059B052B00F0BF80B8F14F
:10487C00000FB0D1BAF1000F7FD1802166E75A4604
:10488C0021463046FFF709FA3319079093F802A036
:10489C005046FCF7A5FF68B3E01C3044FFF703FA61
:1048AC0001305FFA80F85046FCF79AFF28B108EB0C
:1048BC000403ABEB0303032B21D42B685879CDF8FD
:1048CC0008A0E31C334401932B8A00933946DDE99D
:1048DC000632FDF760FE40B109F10109FFF79EF9C0
:1048EC0007985FFA89F9FFF7ADF908F10302224442
:1048FC0094B2A0E75046FCF737FF8046D3E7802000
:10490C00EAE75A4621463046FFF7C7F933190890B3
:10491C009B7807931846FCF763FF06EB0903099392
:10492C00E0B11846FFF7BFF901305FFA80F92B6848
:10493C00089A5879079B0293099B01932B8A009341
:10494C003946069BFDF7DFFD68B90AF101035FFAF2
:10495C0083FA09F10302224494B280E70798FCF72A
:10496C0003FF8146E3E708F101035FFA83F8FFF7E1
:10497C0055F90898FFF766F9EBE74046FFF74EF953
:10498C0029E7059B0C2B14BF16200D20FFF746F9C9
:10499C00214630465A46FFF780F9059B4E44152BAD
:1049AC008246B47802D1132C28BF13240020B8F807
:1049BC000060FFF733F92B685879059BA3F1150CB0
:1049CC00DCF1000343EB0C03CDE901432B8A00938C
:1049DC005246069B3946FDF757FC0A4B9855FAE6AA
:1049EC002846FDF783FF002800F0F68001200BB06D
:1049FC00BDE8F08FA7DE020007E70200E5D7020052
:104A0C0028320020383200202846FDF7C9FFEAE79B
:104A1C000A2F06EB09082BD1DFF8D4A19AF8003045
:104A2C0033B3EB7B23BBABEB0909B9F1080F1FD1F7
:104A3C005A4621463046FFF730F9C8B998F802902B
:104A4C00B9F1000F14D198F80330E22B10D1211DCD
:104A5C005A4689B23046FFF71DF900F0D9FD00F037
:104A6C00D9FD614902460220FFF78CFD8AF80090BF
:104A7C00ABEB040292B241463846FCF771FE0028BB
:104A8C00B4D1002162E6ABEB040292B206EB090151
:104A9C003846FDF79BFFF2E7ABEB040292B206EB54
:104AAC0009013846FDF724FFE9E7ABEB040292B2AB
:104ABC0006EB09013846FDF775FFE0E7ABEB0402A6
:104ACC0092B206EB09013846FCF74CFED7E70134ED
:104ADC002B6816F8098058792B8AA4B24246345DAB
:104AEC000193069B009339462346FDF766FA22464E
:104AFC0041463846FDF7FEFE78E7059B16F809108F
:104B0C00A3F11600621C434292B24341ABEB020B81
:104B1C000031009332441FFA8BF318BF0121384641
:104B2C00FDF7EAFEABE7059B16F809A04E44112BE6
:104B3C0096F801901BD11220FFF770F80020B8F8FE
:104B4C0000402A4ECDF80480C4F1510292B2631C8D
:104B5C0000923344CDE902A93A462946FDF73EFBC3
:104B6C00B8F8003030550133A8F8003033E6142083
:104B7C00FFF754F80120E2E716F809200134A4B23B
:104B8C00003206EB0403ABEB040418BF0122A4B201
:104B9C000021C8B2844201F10101FAD8298A00949B
:104BAC003846FDF7ADFE6AE716F809200134A4B2C9
:104BBC00003206EB0403ABEB040418BF0122A4B2D1
:104BCC000021C8B2844201F10101FAD8298A00946B
:104BDC003846FDF793FE52E7EB7B002B0CBF82218E
:104BEC008421B3E58421B1E523E7020038320020AB
:104BFC003422002082B2074B42B11A80000C064BC3
:104C0C000ABF4FF6CE2218801A8070474BF6EF621F
:104C1C00F3E700BF181C00201A1C0020094B188851
:104C2C00020448BF80F0620042001A80064A1388D2
:104C3C00190444BF83F4805383F00B035900118093
:104C4C0058407047181C00201A1C0020034B187089
:104C5C00034B1970034B00221A7070473622002048
:104C6C0035220020372200200C4B13B51B681B6823
:104C7C001B78672B04D101A825F046FA02B010BDB1
:104C8C000020FEF7F5F804460120FEF7F1F801A923
:104C9C00ADF80400204625F007FAEFE7F4310020C8
:104CAC0038B518F037F930B10C4A0D490120BDE880
:104CBC003840FFF767BC0B4B0B4C1B680B491B6850
:104CCC001D7810226C2D18BF21460123FEF70AF91E
:104CDC0007490220BDE83840FFF754BC0BC5020061
:104CEC003BE70200F43100201C1C00202C1C00208F
:104CFC0051E702002DE9F04707468AB0A0B9FCF74E
:104D0C0029FC06462649DFF8A080DFF8A090DFF8E2
:104D1C00A0A00120FFF736FC00252C46B44205D399
:104D2C0028460AB0BDE8F0870126EBE769462FB1AB
:104D3C00012024F01DFB60B3FE2403E0204626F086
:104D4C0099FB10B10134E4B2E8E722465146012048
:104D5C00FFF734FC0120FFF701FC18B10DF11D0029
:104D6C00FFF782FB069A41460120FFF727FCBDF8AE
:104D7C00003013F0100F14BF79226E224946012027
:104D8C00FFF71CFC01350DF10300FFF7BBFBEDB287
:104D9C00D8E704490120FFF711FCFE24DAE700BF35
:104DAC00B3E8020006E90200E8E80200F0E80200BD
:104DBC00FEE80200F0B51E491E4D1F4E1F4F89B074
:104DCC000120FFF7DFFB6946002025F04BFD002496
:104DDC0010B1204609B0F0BD012022462946FFF74C
:104DEC00EDFB0120FFF7BAFB10B16846FFF73CFB67
:104DFC00069A31460120FFF7E1FBBDF81E2039462B
:104E0C000120FFF7DBFBBDF81C200D490120FFF74B
:104E1C00D5FB013402A8FFF775FBE4B20949012068
:104E2C00FFF7B0FB6946204625F01CFDD0E700BF1C
:104E3C000DE90200FEE80200E8E8020049E9020080
:104E4C0050E90200D7DD020000B58BB069460120A5
:104E5C0024F08EFA18B905980BB05DF804FB4FF0EE
:104E6C00FF30F9E710B58CB002A825F04DF938B930
:104E7C00BDF80830DB0703D42F490120FFF782FB74
:104E8C0002A9032024F074FA20B12822FF2102A8E1
:104E9C00FEF78CFE079B294A29490120FFF772FB7C
:104EAC009DF82430254A27490120FFF76BFB234A44
:104EBC0025490120FFF782FB0DF10B00FFF722FBC8
:104ECC00FFF7C2FF214A1E4903460120FFF75AFB98
:104EDC001E4A1F490120FFF755FB0120FFF70AFF6F
:104EEC001A4A1C490120FFF74DFB0020FFF702FF77
:104EFC000446FCF72FFB2246034617490120FFF717
:104F0C0041FB164A13490120FFF73CFBFFF752FF08
:104F1C001349144B012898BF0B461349CDE90003E4
:104F2C000246124B4FF0010088BF0B461049FFF7A9
:104F3C0029FB0CB010BD00BFFAE7020032E80200FA
:104F4C003AE8020049E8020085ED0200A11F0300C7
:104F5C005AE8020060E8020069E802007DE80200FD
:104F6C00D7DD020015E10200F6E702006DD9020060
:104F7C008BE8020010B50020FDF77AFF04460030E4
:104F8C0018BF01201AF004FE054A064B0649002CF6
:104F9C0008BF1A460120BDE81040FFF7F3BA00BF66
:104FAC0059E702005EE7020067E7020008B500203F
:104FBC00FDF75EFF044B0549188082B2BDE808403E
:104FCC000120FFF7DFBA00BF68200020A8E702002D
:104FDC0008B50020FDF74CFF034B18700120FDF7BE
:104FEC0047FF024B187008BD28220020001C00202F
:104FFC0038B5012505704FF6FB75A94298BF6FEACD
:10500C0043439DF81040847298BF6FEA5343038169
:10501C004260064BC07A082103EBC000FEF788FE05
:10502C000420BDE8384008F0B1BE00BF8C3200202F
:10503C000948037873B9094A1946D3720133042B12
:10504C001173117051601181917202F11002F4D13F
:10505C0001230370704700BF782200203822002003
:10506C0038B5FFF7E5FF094D00240CF0F8F92044A2
:10507C0000012B5C2BB90CF0F2F9204405EB00106D
:10508C0038BD0134042CF0D10020F9E7382200207F
:10509C0030B5054685B0007BFEF720FE174BE87A4D
:1050AC00002403EBC0002C70FEF738FE0CF0D7F98F
:1050BC00134B00B203EB0013204602019A5C22B999
:1050CC0001300428F9D108F081FE696891B12B896F
:1050DC0043F38132C3F30E03ADF806304FF6FF7382
:1050EC0002F00202ADF8083000238DF8042003937F
:1050FC0001A88847FEF7F9FD05B030BD8C320020C1
:10510C003822002038B50446436808460D469847B7
:10511C00B4F90830002B02DB2B78042B06D10023CA
:10512C0063602046BDE83840FFF7B2BF38BD2DE9BB
:10513C00F34104460D4617469846FFF791FF064685
:10514C00D8B14FF6FB724FF6FD73944288BF1C46E4
:10515C00294643463A46204600F0A6F9054602F099
:10516C008DF835B900900623089A21463046FFF792
:10517C003FFF284602B0BDE8F0817025F9E7F7B58E
:10518C0006460C461746FFF76BFF054698B12146BD
:10519C004FF48A52304602F091F8044602F06EF851
:1051AC0034B9009004233A4631462846FFF720FFD5
:1051BC00204603B0F0BD7024FAE7F7B506460F465B
:1051CC00FFF74EFF054698B10022402311463046AA
:1051DC001FF00BFF04461FF0EDFF34B900900123C4
:1051EC003A4631462846FFF703FF204603B0F0BD90
:1051FC007024FAE773B504460E46FFF731FF0546F7
:10520C0098B10022204611461FF09AFF04461FF069
:10521C00D1FF3CB90090234632464FF6FC7128462C
:10522C00FFF7E6FE204602B070BD7024FAE70000DE
:10523C0038B5002404700546FFF7FAFE0D4B9D426D
:10524C000BD003F1080295420ED003F110029542E7
:10525C000CD018339D420BD10324074B03EB0410E5
:10526C00BDE83840FFF714BF0124F6E70224F4E749
:10527C0038BD00BF8C320020382200202DE9F047C9
:10528C009CB014461D4692F800A00F460CF0E7F8AF
:10529C008146FFF7CDFE83480A22102313FB092316
:1052AC000344002280461978514506D113F80A6C44
:1052BC001EB1398839B100268EE00132042A03F17F
:1052CC001003F0D1F7E791447B8808EB09173A8972
:1052DC0042F400408342EED1617800297CD1A3F5E1
:1052EC000043062BE7D801A151F823F033540000FA
:1052FC0033540000C3520000C35200001553000089
:10530C0071540000ED530000E179A379E07A8DF837
:10531C000C0003EB0123ADF81C30617A237A03EB0C
:10532C000123811D0D3DADF81E3014F811C06379B9
:10533C008DF8203015F001058DF814C04CD109AB57
:10534C00049304F10C08AE465FFA8EF9814508F11E
:10535C0002080AD218F801AC18F8029C09EB0A29C9
:10536C0023F81E900EF1010EEEE74900013103EB1C
:10537C00400301F0FF0106935FFA85FE0EEB00037C
:10538C00E645DBB211D20DF1700E0EEB430304EBCC
:10539C00010E01359EF8018014F801E002310EEB8C
:1053AC00082E23F84CECC9B2E6E712F4004F0CBF00
:1053BC0001230323E1788DF80030A37803EB01235C
:1053CC00ADF80430C2F30E0203ABADF80220029329
:1053DC0069463846FFF796FE30461CB0BDE8F087AC
:1053EC00042DF9D9053D2379ADB29D42F4D1002BA2
:1053FC00F2D0A378E1788DF80C5012F4004F03EB47
:10540C00012304F105040CBF01200320C2F30E029A
:10541C00ADF8283003AB04948DF82400ADF82620A9
:10542C000B9309A9D5E70B2DD6D903AD08EB0918B9
:10543C000822A11C2846FEF75DFBB8F80830E17A7B
:10544C000B9513F4004F0CBF042203228DF824207B
:10545C00A27AC3F30E0302EB0122ADF82820ADF8BB
:10546C002630DEE7042DB7D9E178A37803EB0123CE
:10547C002179ADF828304B1DDBB2AB42ACD112F424
:10548C00004F0CBF012303238DF82430C2F30E020E
:10549C0003AB0534ADF826200B9304948DF80C1057
:1054AC00BFE700BF382200202DE9F341054601205B
:1054BC000E4690461F4618F0E1F9FF2804461CD012
:1054CC00022118F0D5F942460021204618F031FC93
:1054DC00002F4FF48A53009328460DBF2346FF2319
:1054EC002246FF22314601F081FF0546204618F086
:1054FC00EBF9284602B0BDE8F0811825F9E7000069
:10550C00304BB0FBF3F22DE9F04103FB12004FF4EA
:10551C006165B0FBF5F3DCB205FB13033C25B3FB73
:10552C00F5F3DBB2A0EB04104B71C3EB0313A0EB50
:10553C0083038B714FF4FA630B8040F201134B80A1
:10554C00DFF884C00C71012300241D4664264FF43F
:10555C00C877944201D1BDE8F08188780BB102285C
:10556C0029D00CEB000E1EF8018C91F803E0C64517
:10557C0004BF0130887088780EBFCD700EF1010E1B
:10558C0081F803E00D2814D10B888D7001339BB288
:10559C0098070B8012D1B3FBF6F006FB103080B2EB
:1055AC0070B9B3FBF7F007FB10339BB2B3FA83F37C
:1055BC005B090134CDE74FF01D08D6E70023F8E76F
:1055CC000123F6E7805101005AE9020010B588B0BA
:1055DC0006A90446FFF794FF0B499DF81B30088879
:1055EC009DF81E1003919DF81D1002919DF81C1042
:1055FC000191BDF8181000919DF81A2004940349EC
:10560C00FEF7C0FF08B010BD3222002066E9020090
:10561C00FDF7D6B9FDF77EB910B50268174B1188A6
:10562C0019805188598051791971117959714FF438
:10563C008A51D980D188890644BF4FF48B51D980C7
:10564C00D2888169520642BFDA8842F04002DA8081
:10565C000B4A137831B90B49C088088023F0020338
:10566C00137010BD084C43F0020313702046162231
:10567C00FEF740FA00232370F3E700BF2A32002024
:10568C0085220020363200208622002038B5394C85
:10569C0023685879FCF72EFAFF282268254611D189
:1056AC00E37C528834490220FEF788FF33490220FC
:1056BC00FEF784FF236832495A790220FEF762FF15
:1056CC00002038BD2F4B03EB0010237F017B994248
:1056DC000FD0E37C528828490220FEF76FFF226826
:1056EC0029495279294B0220FEF768FF227F28496D
:1056FC00E3E7438811888B4216D04FF6FF70814246
:10570C0001D11B0410D5EB7C52881B490220FEF7FB
:10571C0055FF2A681F4B52791B490220FEF74EFF9A
:10572C002B681A881C49C8E72B79023B012B15D82A
:10573C0011895079FDF7E6F880B92A68EB7C52881C
:10574C000D490220FEF73AFF2A68144B52790E4994
:10575C000220FEF733FF2B681A89E3E7AB7B054881
:10576C001BB1BDE83840FEF79FBFBDE83840FEF7DF
:10577C00C1BF00BFAC3200202AED02004AED02008E
:10578C00A9150300D431002065ED0200B4F4020029
:10579C002E0F03008AED0200D3140300EDD7020094
:1057AC0008B5FCF7A7F910B9024B187808BD002012
:1057BC00FCE700BFD032002008B50020FEF78EFABF
:1057CC00FF20FCF7D5FBFEF790FAFBF7F9FF012160
:1057DC0082B20F48FEF7EAF90E4B0F4A0F485221DE
:1057EC00FDF7DAF9FAF7A4FE02F092FD09F02EFCAF
:1057FC0009F02AFB02F080FA0BF082FC0BF0A8FBFC
:10580C0009F078F902F01CF8BDE80840FCF794BCEC
:10581C00D03200202A3200202832002038320020DA
:10582C00704708B518F086FD20B917F073FB08B95E
:10583C00FDF756F8FDF7B8F8BDE80840FDF7C4B819
:10584C00F0B50D4E074600224FF6FF7490B203469A
:10585C0036F83050A54201D12046F0BDBD4209D1E9
:10586C00B7F57C4FF9D306EBC3035B888B42F4D0BE
:10587C000029F2D00132E9E7F8EE020010B5044637
:10588C00FFF7DEFF094B014618884FF6FF7399426C
:10589C0015BF074B074903EBC10322461CBF5A68CF
:1058AC000549BDE81040FEF789BE00BF322200203A
:1058BC00F8EE0200A4ED020029190300024B18684F
:1058CC0000B1008A704700BFCC32002073B515467A
:1058DC00089C2E7816F0040F14BF052603269E4252
:1058EC001A4608D9042000961D4A1E49FEF74AFEA6
:1058FC00002002B070BDBDF8183021712060E3802B
:10590C00A560A2812B7803F00103A3732B7803F01D
:10591C000403002B14BF01210021E1732978C1F38A
:10592C00C00161754FF00101217517D02846FEF7B3
:10593C00B4F9237D208202332375237D5A1CD2B205
:10594C002275E95CA17402332375AB5CE374079B8D
:10595C00A3610BF084FD20770120CAE72382ECE7DA
:10596C000BC5020057EE0200034B18780130C0B291
:10597C00187000F07F0070473E1C0020044A13781A
:10598C0018B143F001031370704723F00103FAE7D9
:10599C0085220020014B1870704700BF8422002024
:1059AC0038B1074B1B78012B04D1038843F040031B
:1059BC0003807047022BFCD1038823F04003F7E7E8
:1059CC008422002068B1074A1378012B07D1064BBB
:1059DC001B781370037843F01003037001E0022B63
:1059EC00F8D070477A22002083220020F0B5304D89
:1059FC002A78D40785B0074607D52E490220FEF732
:105A0C00C1FD0024204605B0F0BD2B4B2B4E197860
:105A1C002B4B187840074CBFD970597012F0020408
:105A2C0031882BD0264A274809F080FC2B7823F0AC
:105A3C0002032B7004464925FFF7ECFD224B234A49
:105A4C00DB882349009513F0200F224B18BF134617
:105A5C00CDE901430246204B0220FEF793FD1F497E
:105A6C000220FEF7ABFD0123328815490220FEF718
:105A7C00DDFC1B490220FEF785FDC3E7194A10889F
:105A8C004FF6FB7290420AD8CDE900370E4A0B460E
:105A9C0001462046FAF73DFF55250446CCE70A4659
:105AAC000097074B0849FAF71BFF42250446C3E74A
:105ABC008522002080EE02003D1C002028320020B0
:105ACC0038320020862200202A32002073EE020099
:105ADC00A6EE0200D7DD0200B2DB0200C1EE02002E
:105AEC0084C50200363200200020FFF77FBF000083
:105AFC0070B50379012B04460D46164631D88368E0
:105B0C001B78DB0600D561B3A37B13B9E37C0B2BAD
:105B1C0027D0154B00221A80637D9342E37B0CBF88
:105B2C0008201046ABB9FEF779F8A07CFEF776F8A2
:105B3C000B20FEF773F8E07CFEF770F82846FEF7B2
:105B4C006DF82046FFF768FD3046BDE87040FFF762
:105B5C004DBF40F00400FEF761F8208AFEF772F8A2
:105B6C00E3E7002070BD00BF28320020024B0A463C
:105B7C0001461868FFF7BCBFCC3200200021FFF7AC
:105B8C00F5BF0022FFF7B4BFF0B4064618460F4B22
:105B9C00BDF810401B780E4D012B01D02F7827B18A
:105BAC00002129700846F0BC704709B9002AF9D1C8
:105BBC004BB14FF657439C4205D033460A4621461B
:105BCC00F0BCFCF791BE0121ECE700BF3C1C0020AF
:105BDC00792200202DE9F04F6C4E6D4C8446964690
:105BEC0098460F460FCE25460FC596E80F0085B098
:105BFC0085E80F00DDF83C90BDF838300093CDE916
:105C0C0001944346724639466046FFF75FFEDFF863
:105C1C00B48170B90025FDF7E1FF162200215D4823
